:020000040800F2
:10000000603501203D020008450200084702000853
:10001000490200084B0200084D02000800000000E1
:10002000000000000000000000000000C10C0008FB
:100030005102000800000000B10B0008F10C00089C
:10004000570200085702000857020008570200082C
:100050005702000857020008570200081D0900084F
:10006000570200085702000857020008570200080C
:1000700057020008570200085702000857020008FC
:1000800057020008570200085702000857020008EC
:1000900057020008570200085702000857020008DC
:1000A00057020008570200085702000857020008CC
:1000B00057020008570200085702000857020008BC
:1000C00057020008570200085702000857020008AC
:1000D00057020008810D000857020008A90D00080A
:1000E000E9080008570200085702000857020008F4
:1000F000570200085702000857020008570200087C
:10010000570200085702000857020008570200086B
:10011000570200085702000857020008570200085B
:10012000570200085702000857020008570200084B
:10013000570200085702000857020008570200083B
:10014000570200085702000857020008570200082B
:10015000570200085702000857020008570200081B
:10016000570200085702000857020008570200080B
:1001700057020008570200080000000000000000BD
:10018000570200085702000800F002F800F047F894
:100190000AA090E8000C82448344AAF10107DA45E2
:1001A00001D100F03CF8AFF2090EBAE80F0013F0ED
:1001B000010F18BFFB1A43F001031847A0290000E4
:1001C000C0290000103A24BF78C878C1FAD8520775
:1001D00024BF30C830C144BF04680C6070470000C1
:1001E0000023002400250026103A28BF78C1FBD840
:1001F000520728BF30C148BF0B607047642900F028
:100200009980782900F0FD80732900F0DB820020BE
:1002100070471FB502F055FC1FBD10B510BD00F0B2
:100220001DFB1146FFF7F5FF00F09AFF00F03BFBC6
:1002300003B4FFF7F2FF03BC00F042FB094880471C
:1002400009480047FEE7FEE7FEE7FEE7FEE7FEE7B8
:10025000FEE7FEE7FEE7FEE704480549054A064BD0
:10026000704700001D0D000889010008602F012063
:100270006035012060310120603101200FB4044954
:1002800010B503AA029800F0A1FA10BC5DF814FBA7
:100290000400002070B5044685690068C10601D5D8
:1002A000302600E02026C00707D070BDD4E9012128
:1002B00030469047206A401C20626D1EF6D570BD06
:1002C00070B5044685690078C00707D170BDD4E9D0
:1002D000012120209047206A401C20626D1EF6D527
:1002E00070BD70B50C460546012A05D028788006F9
:1002F00000D5EA69002302E0012305E05B1C93427C
:1003000002D2E05C0028F9D1A869E618C01AA861F9
:10031000286A184428622846FFF7BCFF04E0D5E9A4
:10032000012114F8010B9047B442F8D32846FFF797
:10033000C7FF70BD2DE9F0410646002410687529FD
:10034000314616A510D0AFF30080002802DA4042F3
:1003500013A507E031688A0701D512A502E0490715
:1003600004D511A5012401E0AFF3008000210A2289
:1003700006F1240709E0B0FBF2FCB0FBF2F302FB4C
:100380001C00303078541846491C0028F3D123460D
:100390002A463046BDE8F04100F090B90000000068
:1003A0002D0000002B00000020000000F0B40D46DE
:1003B0000188090502D5214C7C4402E01F4C7C4495
:1003C0000E34002100F1240608E002F00F071209A4
:1003D000E75D42EA03721B097754491C52EA03079E
:1003E000F3D102780023120704D5702D06D009B18D
:1003F000022311342246F0BC00F060B9012310340E
:10040000F8E770B504460D4621461068AFF300804A
:10041000024629462046BDE870400023C6E7D21DAB
:1004200022F00703D3E90023C0E70368126843F012
:10043000200303600823C3610023B7E720270000DF
:100440002DE9F05F894604464FF0000ADFF874B1E9
:10045000FB44C0F820A02046E1688847002874D0FB
:10046000252806D0D4E901219047206A401C20624B
:10047000F1E700265F462046E168884720280546C8
:1004800007DB312D05D2781910F8200C08B106438E
:10049000F1E7B00701D526F00406C4F81CA0002738
:1004A000C4F818A02A2D09D0284602F003FB38B35F
:1004B00004EB8708303DC8F8185019E059F8041BC0
:1004C000204604EB87029161E1688847012F0546C9
:1004D00018D1E069002820DA26F020061DE0D8F8BF
:1004E000180000EB800005EB40003038C8F8180019
:1004F0002046E1688847054602F0DCFA0028EED184
:10050000012F0AD02E2D08D12046E16888477F1C94
:100510000546022F46F02006C4DBA069002803DA56
:10052000404246F00106A061F00701D026F0100617
:100530006C2D0BD0682D09D04C2D39D06A2D35D0BB
:10054000742D35D07A2D33D016E038E0E1682F468F
:1005500020468847B842054609D16C2F26D04FF473
:100560008060E168064320468847054604E06C2F1A
:100570001AD04FF4807006430DB3A5F1410019283D
:1005800002D8203546F400664A46294620462660B1
:100590004E46FFF733FE80B101280BD0F61D26F042
:1005A000070000F1080956E74020E4E78020D8E77B
:1005B0000020D6E706F104094DE7284652E7206AF5
:1005C00000F002B8B026000030BCBDE8C09F032A8E
:1005D00040F2308010F0030C00F0158011F8013B60
:1005E000BCF1020F624498BF11F801CB00F8013B47
:1005F00038BF11F8013BA2F1040298BF00F801CB0B
:1006000038BF00F8013B11F0030300F0F180083A15
:10061000C0F0088051F8043B083A51F804CBA0E838
:100620000810F5E7121D5CBF51F8043B40F8043B8D
:10063000AFF30080D20724BF11F8013B11F801CBC2
:1006400048BF11F8012B24BF00F8013B00F801CB93
:1006500048BF00F8012B704702F0FF0343EA032272
:1006600042EA024200F002B84FF0000200B5134621
:1006700094469646203922BFA0E80C50A0E80C50C2
:10068000B1F12001BFF4F7AF090728BFA0E80C5073
:1006900048BF0CC05DF804EB890028BF40F8042B6C
:1006A00008BF704748BF20F8022B11F0804F18BFD9
:1006B00000F8012B70477047704770472DE9F047ED
:1006C0000D4699469246044600F1240801688806C2
:1006D00004D5E06921F01001216000E00120A8426A
:1006E00001DD471B00E00027A1697A1902EB090030
:1006F000081AA0612078C00602D42046FFF7CAFD80
:10070000002608E0D4E901211AF806009047206A83
:10071000401C761C20624E45F4DB2078C0060AD5CA
:100720002046FFF7B7FD06E0D4E9012130209047CD
:10073000206A401C2062381EA7F10107F4DC07E0A4
:10074000D4E9012118F805009047206A401C206276
:10075000281EA5F10105F3DC2046FFF7B1FD207846
:10076000000602D50220BDE8F0870120FBE700006B
:1007700001694A1C02610878704700B58FB0CDE965
:1007800001310021059105497944CDE90310114655
:100790006846FFF755FE0FB000BD0000E5FFFFFF04
:1007A00010B5436913B1AFF3008001E0FFF799FD85
:1007B000012010BD127800F124010A7000224A7055
:1007C0000122EDE711684FF0FF32E9E7074B70B502
:1007D0000D467B44FFF7D1FF0446284600F03AF867
:1007E00010B14FF0FF3070BD204670BD1F090000F2
:1007F00010B5203AC0F00B80B1E81850A0E81850AE
:10080000B1E81850A0E81850203ABFF4F5AF5FEAFD
:10081000027C24BFB1E81850A0E8185044BF18C9A2
:1008200018C0BDE810405FEA827C24BF51F8043B49
:1008300040F8043B08BF7047D20728BF31F8023B9D
:1008400048BF11F8012B28BF20F8023B48BF00F831
:10085000012B7047007B00F080007047754600F068
:100860002BF8AE4605006946534620F00700854642
:1008700018B020B5FFF7F0FCBDE820404FF00006AF
:100880004FF000074FF000084FF0000BAC46ACE80B
:10089000C009ACE8C009ACE8C009ACE8C00921F067
:1008A00007018D46704710B50446AFF3008020461F
:1008B000BDE81040FFF7BCBC004870476000002056
:1008C00001491820ABBEFEE7260002007047000079
:1008D000194C2078012808BF00F06EFA2078022811
:1008E000F7D100F091FBF4E780B500F0FBF807A02A
:1008F00000F026FB1648016841F40051016000F049
:10090000F1F83E20BDE8804000F014BB42757474DD
:100910006F6E2050757368656421000080B50648CD
:1009200005210170017805A0FFF7A8FC08480168BF
:1009300041F00201016080BD100200200A0D696DC6
:10094000206865726520636D643A2025642100008B
:100950001404014080B500F085F81248D0F8001466
:1009600021F04061C0F80014016A41F0EE410162DB
:10097000016841F420410160016821F4A041016057
:1009800009490A6842F077020A60D0F8001841F479
:100990002021C0F80018D0F8001821F4A021C0F8D8
:1009A000001880BD00040048240C00487047000077
:1009B000F0B52748284D2A4B10228024016841F0C9
:1009C000010101602348016821F0F001016040212C
:1009D0000160D0F8001441F00201C0F80014296849
:1009E00021F002012960D0F8F81341F00201C0F8AB
:1009F000F8131A490A7043F8044CC66826F0F0064A
:100A0000C6602026C660D0F8007427F40057C0F8EE
:100A100000742F6847F400572F60D0F8F85345F45E
:100A20000055C0F8F8534FF4807081F82120186009
:100A3000D248056845F020050560DA488A771E60CF
:100A4000056845F02005056081F820201C60F0BD98
:100A500060100240080001400C04014007E400E07F
:100A600004E100E04FF09040016841F480610160D2
:100A7000016821F40061016011491248425842F0B6
:100A800080524250425822F000524250016841F4D4
:100A900080710160016821F400710160016841F416
:100AA00080610160016821F400610160016841F426
:100AB00080210160016821F400210160704700BFBE
:100AC00000FCFFFF00080048012000F07BBB20462F
:100AD00000F012BE01217268814000EB80001143DA
:100AE00071607047012000F06DBBC860086840F07D
:100AF0000C000860086840F001000860704720465C
:100B000000F084BC251D284600F018BF204600F0E8
:100B100015BF044600F060BF018841F00801018064
:100B2000704704F1240801256F464FF0000A02AE19
:100B300070473168C96A88427047284601F0E0BEB4
:100B4000294600F031BF94F84500FF28704794F81B
:100B50004400FF2870474FF080500860704701EB59
:100B60008000314600F020BF404601F03FB86A687F
:100B700007FA00F100EB800011437047616907EB51
:100B800080008142704780B572B600F04FF8FFF7E1
:100B9000E1FE00F0E9F800F0F9F800F073F8FFF773
:100BA00007FF62B6BDE8804000F04CB900000000CD
:100BB000EFF30980BFF36F8F154B1A681EF0100F0B
:100BC00008BF20ED108A20E9F04F10602DE90900E0
:100BD0004FF0500080F31188BFF34F8FBFF36F8F3A
:100BE00001F0C4F84FF0000080F31188BDE809005F
:100BF0001968086800F00EB81EF0100F08BF00F06A
:100C00000EB880F30988BFF36F8F704700BF00BF35
:100C10000C01002030C8B0E8C04FFFF7EDBFB0ECCA
:100C2000088AB0EC08CAFFF7ECBF00001448C1689E
:100C300041F48061C160C16841F08051C160C16808
:100C400041F48021C160C16841F48001C160416903
:100C500041F480414161016841F001010160016896
:100C600041F002010160016841F004010160016886
:100C700041F008010160016841F010010160704716
:100C80004C1002400B48016841F4807101600A4831
:100C9000016841F001010160016841F48071016067
:100CA000016821F400710160016841F400410160B4
:100CB000704700BF0070004090100240000000002C
:100CC000074B1968086800F00DB880F30988BFF376
:100CD0006F8F4FF0000080F31188704700BF00BF96
:100CE0000C01002030C8B0E8C04FFFF7EEBF000095
:100CF00080B54FF0500080F31188BFF36F8FBFF3C2
:100D00004F8F01F00BFD18B103484FF08051016087
:100D1000002080F3118880BD04ED00E010B50F487D
:100D2000104CD0F8801041F47001C0F880100C49CC
:100D30000A6842F001020A6000228A600B682340C0
:100D40000B604FF48053CB600B6823F480230B605F
:100D50008A614FF00061016010BD00BF08ED00E046
:100D600000100240FFFFF6EA0D484FF4E131006841
:100D7000B0FBF1F00149FFF7B8BE00BF00380140F9
:100D8000C548012101706348FFF7C6BE04484FF40F
:100D9000E1310068B0FBF1F00249FFF7A6BE00BFE9
:100DA000000000200048004002480121017058481E
:100DB000FFF7B2BE1C2F0120B0B51E481E4C0088A4
:100DC0002178C0B249B17F2801D0082817D100F09E
:100DD000B1F820780138207026E00D2811D0602865
:100DE0001BD1651C16A02946FFF748FA202029468A
:100DF000202204F8210B2046FFF7E9FB14E00D2820
:100E000009D16018002580F82150FFF75DFE0B48DE
:100E1000257002210AE01F2906D84A1C21442270AD
:100E200081F8210000F086F8044800210170034891
:100E30000078B0BD24380140C80000201002002016
:100E40002573000080B5022000F0BCF9064800F0D0
:100E500077F8022000F068F9022000F0B3F93E2094
:100E6000BDE8804000F066B84C2B000870470000D9
:100E7000F8B5FFF737FE1DA0FFF700FAFFF732FEC7
:100E8000234D244E244F72B6686880060AD5A8897F
:100E900000F050F8288840F008002880386880F07A
:100EA0002000386070688006EED5B089C4B2602C2E
:100EB00010D0204600F03EF8204600F055F830886B
:100EC00040F008003080D7F8000480F48040C7F874
:100ED0000004D9E7FFF706FE10A0FFF7CFF9FFF7F0
:100EE00001FE62B6BDE8F84000F0C6B8456E746514
:100EF00072696E6720576946692064697265637418
:100F000020636F6D6D616E64206D6F64650000001D
:100F100018480040183801401400004845786974AA
:100F2000696E6720436F6D6D616E64204D6F6465FF
:100F3000000000000B490A681206FCD58881704742
:100F400081B0002100910749009A825C42B10A6891
:100F50001206FCD5009A531C0093825C8A81F3E749
:100F600001B070471C38014002490A681206FCD5DE
:100F7000888170471C480040B0B5544B0022142AA9
:100F800004D053F832402CB10132F8E74349002035
:100F9000087009E043F83200501C03EBC202002540
:100FA000C4B2516043F83450C0B2B0BD81B0002229
:100FB0008DF803209DF80320835C0A789A4202D0C2
:100FC000203B934210D142B99DF80320825C6AB164
:100FD0009DF80320825C202A0AD09DF8032001316D
:100FE00001328DF80320E5E7002009E0042000E04D
:100FF000062004490A7802F0F1021043087001202B
:1010000001B07047B4020020F8B500F04BF8164D5F
:10101000144F002605F12104A02E13D0B95989B12F
:101020002046FFF7C3FF08360028F5D0B81950F85E
:10103000041C20468847681C21462022BDE8F84051
:10104000FFF7C5BA09A02146FFF718F9FFF73CFDE5
:101050000848FFF775FFFFF737FDBDE8F84000F0DF
:101060000BB800BF14020020C80000202573203FE9
:1010700021000000152B000880B5074800210170F1
:1010800006480170064801210170FFF71DFD3E2052
:10109000BDE88040FFF74EBF10020020C8000020CE
:1010A000B502002010B5094800210B4C016008482A
:1010B0000849A04709480A49A0470A480A49A047E1
:1010C0000A480B492246BDE8104010471402002090
:1010D0002D2B0008D1180008790F0008372B0008C5
:1010E0006D0E00083C2B0008710E0008322B000822
:1010F000AD090008FFF71EBF044C206880F02000F7
:1011000020604FF4967000F043FDF6E714000048AD
:10111000044C206880F48040206040F2311000F0E0
:1011200037FDF6E71404004810B50446FFF7DAFC73
:1011300007A004A1012C08BF0846BDE81040FFF736
:10114000FFBE00BF5F5F5F5F5F5F5F5F000000002B
:101150005F5F5F5F5F5F5F5F5F5F5F5F5F5F5F00FE
:1011600082B0FFF710FD012000F0A2FE104C2060BD
:10117000012000F09DFE60600E480F4D002400210C
:1011800080220023CDE90044A8470C48002180229A
:101190000023CDE90044A847094800214FF4FA7222
:1011A0000023CDE90044A84700F09EFDFEE700BF04
:1011B000C0000020F910000859250008111100088E
:1011C000D108000870B5054D04460026A642A8BF08
:1011D00070BD2846FFF7B4FE0136F7E72A2B00085A
:1011E000F8B5A04C05460E46E7692068043000F0CB
:1011F000A5FB40B920680121C06A01FA00F06168CE
:1012000021EA00006060681C08D13EB154F8500B20
:10121000011D2046BDE8F84000F0C6BB2068ED196E
:10122000456006D3606A21680431BDE8F84000F0EB
:10123000A4BB206A2168043100F09FFB206B85422B
:1012400038BF2563F8BD00BF70B500F0C5FB0E4E7A
:101250003068A8B906F11404204600F080FB06F1BE
:101260002805284600F07BFB0A200C210022C6E955
:10127000024500F031FE306010B104A100F056FCD0
:10128000BDE8704000F0C4BB84010020546D725171
:101290000000000010B5026C6AB1D0E902431344AB
:1012A000C360A34224BF0368C36008461946BDE873
:1012B0001040FFF78CB910BD70B51546866B026CF7
:1012C0000446CAB105B3E068FFF781F9E268206C13
:1012D0002168121A8A42E26003D2A168404208449F
:1012E000E060002E304618BF0120A91EB1FA81F13E
:1012F00049090840361A13E02068002580B9A06823
:1013000001F074FAA5600CE06068FFF760F9D4E9B9
:101310000101226C10448842606001D32068606043
:101320000020711CA16370BD10B50446006B00F075
:1013300085FB2046BDE8104000F080BB494D124EB1
:10134000EC4F4FF08058E86890B100F045FBA86C76
:10135000C468201D00F0F2FA286901382861E868A5
:101360000138E86000F054FB2046FFF7DDFFEAE7B4
:1013700030680228E7D3C7F800803846BFF34F8FA4
:10138000BFF36F8FDFE700BFB802002070B5104BCE
:1013900003F11802114612688242FBD34D6844687B
:1013A0004E19864202D12C4408464C6005199542DC
:1013B00001D0026007E05B689A42FAD0D2E90032BD
:1013C0002244C0E90032814218BF086070BD00BFEE
:1013D000C001002010B50C460146006141F8044FE1
:1013E000944206D99A4201D29C420CD2C0488068ED
:1013F00005E08069D21A824205D2BD48C06800F07B
:10140000BCFA002010BD012010BD00BF10B5FFF7D1
:1014100080FBA06BB0FA80F0440900F0F9FA204696
:1014200010BD000008480068006880F308884FF08D
:10143000000080F3148862B661B6BFF34F8FBFF32C
:101440006F8F00DF00BF00BF08ED00E00548016AB4
:10145000096819B1016AC968096801E04FF0FF31F4
:10146000016370470C0100202DE9FC47804601F024
:1014700051F9214D81464FF0000A2869814533D248
:10148000A868016859B3C068C6680768341D20465B
:1014900000F054FA316A3046884796F82800400731
:1014A000EED5B0693844B84206D97060A8682146C4
:1014B000366100F062FAE3E7304600213A46002345
:1014C000CDF800A001F0CAFA0028D9D14FF05000A1
:1014D00080F31188BFF36F8FBFF34F8FFEE7E9688A
:1014E0004FF0010AC5E902104846C5F81090C8F847
:1014F00000A000F003B800BF840100200CBCBDE8D0
:10150000F087000081B000200090094800684FF08B
:10151000500181F31188BFF36F8FBFF34F8F0130FC
:1015200000D0FEE700980028FCD001B0704700BF53
:101530005800002086B06E4F03AC4FF0000B02AD98
:10154000B86806681EB1C068D0F8009001E04FF09E
:10155000000900F005FC2046FFF786FF824603984D
:1015600010B101F0F9F99EE01EB1D14519D9002260
:1015700004E0F8680068B0FA80F042093868A9EB26
:101580000A0100F0E5FA01F0E7F9002840F08B804D
:1015900058484FF080510160BFF34F8FBFF36F8FFA
:1015A00081E001F0D9F9B868C068D0F80C8008F182
:1015B000040000F0C3F998F82800410704D400F0B3
:1015C000FE0088F8280014E0D8F8180052464B4670
:1015D00000EB09014046FFF7FDFE50B140460021F7
:1015E0004A460023CDF800B001F038FA002800F098
:1015F0007580D8F820104046884754E003980028AA
:1016000051D4059E706910B1301D00F097F928463D
:10161000FFF72AFF02460398092844D8DFE800F0C4
:101620000505052528370505252896F82800049B7B
:1016300040F0010086F82800B069C1183046FFF775
:10164000C9FE80B3316A3046884796F828004007C3
:1016500029D5B06904990023CDF800B0421830466E
:10166000002101F0FBF9F0B92FE096F8280016E010
:10167000049896F8281041F00101B06186F828100E
:10168000D0B1811830461346FFF7A4FE0BE096F860
:101690002800810703D4304600F0D0F903E000F0C1
:1016A000FE0086F8280038682146002200F0B8FDC8
:1016B00000287FF4A3AF43E74FF0500080F3118878
:1016C000BFF36F8FBFF34F8FFEE74FF0500080F3F3
:1016D0001188BFF36F8FBFF34F8FFEE74FF05000BD
:1016E00080F31188BFF36F8FBFF34F8FFEE700BF0A
:1016F0008401002004ED00E070B5FFF70AFA94F8C9
:10170000456004F1240570B2012808DB286830B177
:10171000FFF713FA08B100F065FA013EF3E7FF2086
:1017200084F8450000F074F900F056F994F844602C
:1017300004F1100570B2012808DB286830B1FFF70A
:10174000FCF908B100F04EFA013EF3E7FF2084F8FF
:101750004400BDE8704000F05BB90000F8B50446F5
:1017600000F0FEFAD14D686828B12878002818BF2B
:101770004FF0004023E047490020CB1D11F0070245
:101780000E4623F0070318BF1E46C5E90660C91AB6
:101790004FF49633002A18BF01F59633F118083933
:1017A00021F007016960C1E90000881B6968706069
:1017B0003160C5E90200012028704FF0004020424E
:1017C0000FD0002401F0C8F8600704BF2046F8BD20
:1017D0004FF0500080F31188BFF36F8FBFF34F8F2E
:1017E000FEE7002CEDD014F1090FEAD804F108014E
:1017F00011F007000ED0081A08308842E1D94107DD
:101800000AD04FF0500080F31188BFF36F8FBFF301
:101810004F8FFEE709B9D4E70146AA689142D0D8B4
:101820002E4656F8184F606833462646884202D244
:101830003468002CF7D16C68A642C2D037681C68A7
:101840001F60431A112B11D37018420708D04FF0B4
:10185000500080F31188BFF36F8FBFF34F8FFEE707
:1018600043607160FFF792FDAA687068111AEA6818
:101870000834A960914238BFE9602978002918BF6F
:1018800040F000400021C6E90010286901302861BD
:1018900098E700BF1C030020EE48016819B10168F9
:1018A000CA6C0132CA640068704700BFB0B5074C0B
:1018B0006FF002054FF0807321F0010140E90952F9
:1018C00040E9034140F8043C4438B0BD0515000828
:1018D000B0B5134C4FF0FF31206800F03FFD114DC3
:1018E00028682A6829686B686B686B68BF2303EAFD
:1018F0001141C3B2C2F307220BA0FEF7BFFC286858
:10190000400202D50CA0FEF7B9FCFFF7B5FB20683A
:10191000002100220023BDE8B04000F055BB00BF0D
:10192000C400002000280040252E32583A252E32CF
:10193000583A252E32582000504D0000D0E901328F
:1019400001699A60826853604B68834208BF4A60AD
:101950000A68013A0A6000220261086870470021A3
:10196000024601604FF0FF3142F8081FC0E9032230
:1019700042607047002101617047B0B50C68621C7D
:1019800007D000F10802134652681568A542FAD93B
:1019900001E003695A6891600861C1E90123596057
:1019A000016801310160B0BD10B5026843689C68F0
:1019B0000132C1E9013408610260986899604160B0
:1019C00010BD0000DFF80C00016841F470010160F7
:1019D000704700BF88ED00E04FF0500080F31188A1
:1019E000BFF36F8FBFF34F8F134801684A1C02602B
:1019F00001B17047774800680006FAD04FF05000F8
:101A000080F31188BFF36F8FBFF34F8FFEE700BFE6
:101A10000948016819B10139016009D070474FF0D8
:101A2000500080F31188BFF36F8FBFF34F8FFEE735
:101A3000002080F3118870475800002070B5B8B1BD
:101A40001A4E044650F8040C3178002918BF4FF0A4
:101A5000004101420DD0A4F108052A6892B14FF06F
:101A6000500080F31188BFF36F8FBFF34F8FFEE7F5
:101A700070BD4FF0500080F31188BFF36F8FBFF33C
:101A80004F8FFEE7884344F8040C00F069F954F8DE
:101A9000040CB1680844B0602846FFF777FC706911
:101AA00001307061BDE8704000F056BFC0010020F9
:101AB000074800214FF47A72016081600549096886
:101AC000B1FBF2F10139416007210160704700BFAD
:101AD00010E000E000000020EFF3058010280ED396
:101AE0001049405CEF490978884208D24FF0500015
:101AF00080F31188BFF36F8FBFF34F8FFEE70A4863
:101B0000E8490068496800F4E060884298BF70477F
:101B10004FF0500080F31188BFF36F8FBFF34F8FEA
:101B2000FEE700BFF0E300E00CED00E010B5074B6E
:101B30000022082A09D053F832400CB10132F8E7EC
:101B400043F8321003EBC201486010BD202F012082
:101B500070B515460E46FEF7DCFFFEF7F8FF02D122
:101B6000002084F84400FEF7EEFF02D1002084F844
:101B70004500FFF74DFFA06B28B904F12400314662
:101B80002A4600F04BF82046BDE87040FFF7B4BD90
:101B900080B5A8B18B498A6942B14FF0500080F3FB
:101BA0001188BFF36F8FBFF34F8FFEE78A69013251
:101BB0008A610021FFF714FB00F0CEFE00B180BD6A
:101BC00004484FF080510160BFF34F8FBFF36F8F18
:101BD00080BD00BF04ED00E07A498A6B0260C969EC
:101BE00041607047774801218162704710B558B154
:101BF0000C46744909681831FFF7BFFE20460121E1
:101C0000BDE81040FFF7ECBA4FF0500080F31188A8
:101C1000BFF36F8FBFF34F8FFEE700BFB0B580B14A
:101C20000D466849144609681831FFF7BDFE002CBF
:101C300018BF4FF0FF3528462146BDE8B040FFF7FA
:101C4000CFBA4FF0500080F31188BFF36F8FBFF30E
:101C50004F8FFEE70C010020F8B5E0B1C26C0446DE
:101C6000D2B1A06C884238BF0846012A13D1E16A7C
:101C7000814210D0534E3268A24216D0A269E0626F
:101C8000002A02D4C0F10500A0614F4F01EB810092
:101C9000FEF774FF12D0F8BD4FF0500080F31188AA
:101CA000BFF36F8FBFF34F8FFEE74FF0500080F30D
:101CB0001188BFF36F8FBFF34F8FFEE7FEF722FF50
:101CC000E16A01228A4010B97068904370607068C0
:101CD0001043706001EB8100294607EB8000BDE8EE
:101CE000F840FFF761BE00BF1CB5184C00218222EE
:101CF000002304F12C00CDE90010154815A100F0D7
:101D00002BFC012808BF00F085FE411C15D00128DE
:101D100010D14FF0500080F31188BFF36F8FBFF3E5
:101D20004F8F4FF0FF302063012060610020E061A1
:101D300000F04CF8094800681CBD4FF0500080F3DB
:101D40001188BFF36F8FBFF34F8FFEE70C010020A8
:101D50003D13000849444C4500000000482B000892
:101D60001848816901318161704700BF1548816958
:101D700011B10121816270470021134A81624168DB
:101D8000B1FA81F1C9B2C1F11F0101EB810152F831
:101D900021306BB102EB810252F8041F4968131D18
:101DA0009942116001D149681160C96801607047AA
:101DB0004FF0500080F31188BFF36F8FBFF34F8F48
:101DC000FEE700BF0C010020B80200201CB532481D
:101DD000324902684B1C9A4208D14FF0500080F300
:101DE0001188BFF36F8FBFF34F8FFEE702688A42FF
:101DF00008D14FF0500080F31188BFF36F8FBFF30D
:101E00004F8FFEE726490724425C0192FF2242548D
:101E1000244A435C54608DF803309DF8033003F08E
:101E20005003137006239DF90340B4F1FF3F07DC14
:101E30005360013B9DF8034064008DF80340F2E7D6
:101E4000022B20D14FF440735360019A4254016A2F
:101E500041F470010162016A41F070410162FFF7D3
:101E600027FE114800210160FFF7ACFD0F48016813
:101E700041F040410160FFF7D5FAFFF777FFFFF728
:101E800041FB00201CBD4FF0500080F31188BFF3D0
:101E90006F8FBFF34F8FFEE700ED00E070C20F4180
:101EA00000F7FFFFE00100205800002034EF00E0C1
:101EB000B0B5024601200021002500F00DF80446CF
:101EC00040B120460021002200232560C4E90255CC
:101ED00000F07AF82046B0BDF8B578B10D46064658
:101EE000A1FB0001144691B18DB14FF0500080F379
:101EF0001188BFF36F8FBFF34F8FFEE74FF0500095
:101F000080F31188BFF36F8FBFF34F8FFEE710F19F
:101F1000500F08D34FF0500080F31188BFF36F8F3C
:101F2000BFF34F8FFEE75030FFF718FC074660B154
:101F30003846C7E90F65002D18BF503038600121C1
:101F4000384600F005F887F84C403846F8BD0000E8
:101F500070B5F0B10D46FEF7DCFD0020A063FF2058
:101F600084F84400D4E90F23216884F84500501E0A
:101F700003FB021600FB0310C4E90116E06004F144
:101F800010007DB1FFF7EBFC04F12400FFF7E7FC44
:101F900015E04FF0500080F31188BFF36F8FBFF34F
:101FA0004F8FFEE7016851B100F0AAFC38B1E84854
:101FB0004FF080510160BFF34F8FBFF36F8FFFF77A
:101FC00027FD012070BD00BF2DE9FE4F0292B8B180
:101FD0001D4617468A460446D9B1022D03D1E06B4F
:101FE000012840F0778000F089FBF0B9EFB14FF0A5
:101FF000500080F31188BFF36F8FBFF34F8FFEE760
:102000004FF0500080F31188BFF36F8FBFF34F8FF5
:10201000FEE7206C0028E0D04FF0500080F31188DC
:10202000BFF36F8FBFF34F8FFEE704F110084FF03F
:10203000010BE946FFF7D0FCA06B022D53D0E16BFA
:10204000884250D30298002861D05FEACB7002D05A
:102050004846FFF7C1FDFFF7DBFCFFF781FEFFF706
:10206000BBFCFEF774FD02D1002084F84400FEF7AB
:102070006AFD02D1002084F84500FFF7C9FC4846FC
:1020800002A900F031FA002844D1FFF7A5FCA66BA5
:10209000E76BFFF7BDFCBE4215D10299FEF764FD68
:1020A000FEF715FD00F058FC4FF0000B0028C1D1E1
:1020B00022484FF080514FF0000B0160BFF34F8F6B
:1020C000BFF36F8FB6E7FEF702FD00F045FC4FF05F
:1020D000000BAFE74FF0500080F31188BFF36F8F14
:1020E000BFF34F8FFEE7204651462A46FFF7E4F83C
:1020F00054F8241FA9B1204600F002FCC8B10F49D2
:10210000FEF729FDBFF34F8FBFF36F8F11E0FFF78D
:102110007FFC03E0FEF7DBFC00F01EFC002000F07B
:102120000FB830B10549FEF716FDBFF34F8FBFF36F
:102130006F8FFFF76DFC012000F002B804ED00E0A6
:102140001EBCBDE8E08F2DE9F843E8B11E4691467C
:102150000F46054609B3022E02D1E86B012844D18F
:10216000FFF7BAFCEFF311884FF0500080F31188AD
:10217000BFF36F8FBFF34F8F022EA86B19D0E96B9F
:10218000884216D3002046E04FF0500080F31188BB
:10219000BFF36F8FBFF34F8FFEE7286C0028DAD0B4
:1021A0004FF0500080F31188BFF36F8FBFF34F8F54
:1021B000FEE795F84540A86B394632462846FFF7BA
:1021C0007BF87F2C1AD0FF2C21D155F8240F08B3AF
:1021D000FEF7B3FC01460120B9F1000F18BF00293A
:1021E00019D00120C9F8000015E04FF0500080F32D
:1021F0001188BFF36F8FBFF34F8FFEE74FF0500092
:1022000080F31188BFF36F8FBFF34F8FFEE7601C21
:1022100085F84500012088F31188BDE8F8830000A7
:102220002DE9FE4F029288B11546894604460029E1
:1022300063D000F063FA90B98DB14FF0500080F395
:102240001188BFF36F8FBFF34F8FFEE74FF0500041
:1022500080F31188BFF36F8FBFF34F8FFEE7FEF758
:1022600060FCFFF7B9FBD4F838B0BBF1000F51D1D7
:102270000298002865D0E80702D03846FFF7ACFC8A
:10228000FFF7C6FBFFF76CFDFFF7A6FBFEF75FFC51
:1022900008BF84F844A0FEF756FC08BF84F845A0A8
:1022A000FFF7B6FB3846314600F01EF948B1FEF79D
:1022B0000EFC00F051FBFEF722FC00250028D0D0D8
:1022C00042E0FEF71CFC90B10299FEF74DFCFEF7D0
:1022D000FEFB00F041FB00250028C2D11C484FF056
:1022E00080510160BFF34F8FBFF36F8F03E0FEF7A4
:1022F000EEFB00F031FB0025B3E7206C00283FF433
:1023000098AF4FF0500080F31188BFF36F8FBFF389
:102310004F8FFEE720464946FEF7BCFFABF10100B8
:10232000A06354F8100F50B1204600F0E9FA30B124
:102330000749FEF710FCBFF34F8FBFF36F8F0125E6
:1023400000E00025FFF764FB284600F003B800BF5B
:1023500004ED00E01EBCBDE8E08F00002DE9FE4F5B
:10236000029158B10446006C88B14FF0500080F3E0
:102370001188BFF36F8FBFF34F8FFEE74FF0500010
:1023800080F31188BFF36F8FBFF34F8FFEE70D46C9
:1023900000F0B4F948B945B14FF0500080F311880E
:1023A000BFF36F8FBFF34F8FFEE704F124080125C1
:1023B0004FF0000B6E4602AF4FF0805A4FF000090D
:1023C000FFF70AFBA06B00284DD10298002861D0CE
:1023D000E80702D03046FFF7FFFBFFF719FBFFF7D6
:1023E000BFFCFFF7F9FAFEF7B2FB08BF84F844B070
:1023F000FEF7A9FB08BF84F845B0FFF709FB30469C
:10240000394600F071F848B1FEF761FB00F0A4FA1C
:10241000FEF775FB00250028D2D047E0FEF76FFBE2
:1024200028B9FEF754FB00F097FA0025C8E72068AA
:1024300038B9FFF7D1FAA06800F020FA8146FFF71B
:10244000E7FA0299FEF790FBFEF741FB00F084FAF1
:1024500000250028B4D12148C0F800A0BFF34F8F59
:10246000BFF36F8FE1E70138A063206810B9FFF771
:1024700013FAA06054F8100F50B1204600F040FA53
:1024800030B11649FEF767FBBFF34F8FBFF36F8F75
:1024900001241EE0B9F1000F1AD04FF0500080F374
:1024A0001188BFF36F8FBFF34F8FFEE7B9F1000FB5
:1024B00008D0FFF791FA606A30B1206B0068C0F174
:1024C000050102E0002406E00021A068FFF7C4FB3C
:1024D0000024FFF79DFA204600F002B804ED00E06A
:1024E0001EBCBDE8E08F0000F8B5D8B10C4611B3B2
:1024F0000546FFF771FAE048C26921684B1C0FD00E
:10250000D5E90063876BB74201D09A421CD2D21A38
:10251000914219D9891A2160816B2960C06968606C
:10252000002414E04FF0500080F31188BFF36F8F48
:10253000BFF34F8FFEE74FF0500080F31188BFF3D9
:102540006F8FBFF34F8FFEE7002020600124FFF75D
:102550005FFA2046F8BD00BF2DE9F84F970082468C
:10256000994616460D463846FFF7F8F838B3044644
:102570005820FFF7F3F8F8B183460463DDF82880AC
:1025800020463946A522FEF767F8DBF8300000EB5D
:102590008600043820F00704A5B10BF134000021B7
:1025A0000A2905D06A5C42546A5C0131002AF7D1DD
:1025B00000208BF83D0008E02046FFF73FFA4FF07F
:1025C000FF3689E000208BF834000BF1040500266B
:1025D0000B9F2846B8F1040F28BF4FF00408CBE941
:1025E0001286CBF82C80FFF7C5F90BF11800FFF726
:1025F000C1F9C8F1050051464A468BF85460CBF842
:102600005060CBF824B0CBF810B0CBF818002046BF
:10261000FFF74CF9CBF800000FB1C7F800B0FFF797
:10262000DBF92F4F386901303861386850B178696B
:1026300058BBDBF82C003968C96A814298BFC7F8DB
:1026400000B022E0C7F800B0386901281DD1254E3E
:102650000024642C04D03019FFF781F91434F8E712
:10266000DFF88480214C4046A04708F1140630462C
:10267000A04707F16400A04707F13C00A04707F11D
:102680005000A047C7F820807E627868B9680126AC
:102690000131CBF84010B960DBF82C1006FA01F2DA
:1026A0001043786001EB81000E4901EB8000FEF7DA
:1026B00047FAFFF7ADF9786970B1DBF82C0039689B
:1026C000C96A814207D20A484FF080510160BFF3C6
:1026D0004F8FBFF36F8F0126304600F00BB800BF5D
:1026E0000C010020B8020020E80100205F1900085A
:1026F00004ED00E018BCBDE8E08F0000C24841696D
:1027000029B18069B0FA80F040094000704701208B
:10271000704700BFBC48C069704700BF2DE9F04753
:10272000B94EB06920B1706B00240130706359E07C
:10273000F06910F1010AC6F81CA014D3306A0068D1
:1027400040B14FF0500080F31188BFF36F8FBFF39B
:102750004F8FFEE7306A716A31627062B06B013090
:10276000B063FEF773FE306B002482452CD3DFF894
:102770009C924FF00108306A006810B3306AC0685C
:10278000C7683D4655F8040F82451CD32846FFF71D
:10279000D5F8B86A18B107F11800FFF7CFF8F86A52
:1027A000726808FA00F100EB8000114309EB800029
:1027B0007160FEF7C5F9F86AFEF7BBF928BF444619
:1027C000D9E74FF0FF30306330689049C06A00EBC2
:1027D000800051F82000012888BF0124B06A002839
:1027E00018BF01242046BDE8F08700BFF8B568B1E6
:1027F000854F04463868A0420BD04FF0500080F35C
:102800001188BFF36F8FBFF34F8FFEE70025284677
:10281000F8BDE06C30B301384FF00005E064F6D14C
:10282000E06AA16C8842F2D0261D3046FFF786F898
:1028300038B9E06A012101FA00F0796821EA000064
:102840007860A06C0125C0F10501E062A16105FA84
:1028500000F100EB80007A68114379606B49FEF764
:102860007EF9D4E74FF0500080F31188BFF36F8FEB
:10287000BFF34F8FFEE700BF0C010020F8B5C0B1D9
:10288000614E0446C06AFEF754F914D2A1690029CA
:1028900004D43168C96AC1F10501A1615B4F00EB45
:1028A0008000FEF76BF90ED03068C06AE062012448
:1028B00023E0002421E0A16C3068C26A002091422C
:1028C00038BF0120F8BDFEF71DF938B9E06A0121D3
:1028D00001FA00F0716821EA000070603068C06A97
:1028E000E0620124726804FA00F100EB800007EB5B
:1028F000800011437160FEF723F92046F8BD00BF48
:1029000070B5C068C5684DB105F11804FEF7FEF852
:102910003D4EB06958B106F1640011E04FF050002F
:1029200080F31188BFF36F8FBFF34F8FFEE72C1D2D
:10293000FEF7ECF8E86AFEF7CDF8344901EB8000C9
:102940002146FFF731F8E86AFEF7F3F802D90120D3
:10295000B06270BD002070BD2DE9F0412A4DA8691C
:1029600060B1FFF739F8A8690138A861A86970B1AA
:102970000024FFF74DF82046BDE8F0814FF05000ED
:1029800080F31188BFF36F8FBFF34F8FFEE7286985
:102990000028EDD0DFF8748000260127686EC0B1F2
:1029A000286FC66806F11800FEF7C8FF341DFEF751
:1029B000ADF8F06AFEF7DBF808EB800069602146AD
:1029C000FEF7F2FFF06A2968C96A884228BFAF6241
:1029D000E4E70EB1FEF73AFD6C6B44B10126FFF758
:1029E0009DFE00B1AE62013CF9D100206863A86A87
:1029F0000028BDD006484FF0805101240160BFF38C
:102A00004F8FBFF36F8FB4E70C010020B802002096
:102A100004ED00E0E0B5FEF717FC0C48016861B179
:102A2000043002214FF482720023CDE900100848DF
:102A300008A1FFF791FD00B18CBD4FF0500080F36D
:102A40001188BFF36F8FBFF34F8FFEE78401002023
:102A500035150008546D722053766300BFB5A8B1D8
:102A6000134D04462868D0B101AF052916C718DCFC
:102A7000FFF744FE01462868022907BF089A01A90A
:102A800001A900220023FFF79FFA0FE04FF050004A
:102A900080F31188BFF36F8FBFF34F8FFEE70020E5
:102AA00004E01A4601A90023FFF74DFB04B0B0BDB6
:102AB0008401002030380A2801D20120704700200C
:102AC0007047F1EE100A4FF6FF71C0F2C03120EAF4
:102AD000010040F04070E1EE100A704730313233AF
:102AE0003435363738394142434445464030580042
:102AF0003031323334353637383961626364656674
:102B000040307800040000080000000000000002CF
:102B100000010000105B215D20756E6B6E6F776E9B
:102B200020436F6D6D616E6421000A0D0054494DA4
:102B3000450048454C5000574946490057494649C9
:102B40004C495354454E00000400000057454C4387
:102B50004F4D4520544F2046434D44007C2B0008E8
:102B6000000000205C000000C4010008D82B000811
:102B70006000002000350100E001000800093D0070
:102B80000100000000000000000000000000000044
:102B90000000000000000000000000000000000035
:102BA0000000000000000000000000000000000025
:102BB0000000000000000000000000000000000015
:102BC0000000000000000000000000000000000005
:082BD00000000000AAAAAAAA55
:040000050800023DB0
:00000001FF
