:020000040800F2
:10000000E00E00203D0200084502000847020008FB
:10001000490200084B0200084D02000800000000E1
:100020000000000000000000000000004F02000877
:10003000510200080000000053020008110B0008E4
:10004000570200085702000857020008570200082C
:10005000570200085702000857020008F10700087D
:10006000570200085702000857020008570200080C
:1000700057020008570200085702000857020008FC
:1000800057020008570200085702000857020008EC
:1000900057020008570200085702000857020008DC
:1000A00057020008570200085702000857020008CC
:1000B00057020008570200085702000857020008BC
:1000C00057020008570200085702000857020008AC
:1000D00057020008850B000857020008C10B0008F2
:1000E000BD07000857020008570200085702000821
:1000F000570200085702000857020008570200087C
:10010000570200085702000857020008570200086B
:10011000570200085702000857020008570200085B
:10012000570200085702000857020008570200084B
:10013000570200085702000857020008570200083B
:10014000570200085702000857020008570200082B
:10015000570200085702000857020008570200081B
:10016000570200085702000857020008570200080B
:1001700057020008570200080000000000000000BD
:10018000570200085702000800F002F800F047F894
:100190000AA090E8000C82448344AAF10107DA45E2
:1001A00001D100F03CF8AFF2090EBAE80F0013F0ED
:1001B000010F18BFFB1A43F0010318472C11000070
:1001C0004C110000103A24BF78C878C1FAD8520701
:1001D00024BF30C830C144BF04680C6070470000C1
:1001E0000023002400250026103A28BF78C1FBD840
:1001F000520728BF30C148BF0B607047642900F028
:10020000AF80782900F01381732900F082820020EA
:1002100070471FB501F015F81FBD10B510BD00F0F7
:1002200093FA1146FFF7F5FF00F050FF00F0B1FA26
:1002300003B4FFF7F2FF03BC00F0B8FA09488047A7
:1002400009480047FEE7FEE7FEE7FEE7FEE7FEE7B8
:10025000FEE7FEE7FEE7FEE704480549054A064BD0
:1002600070470000210B000889010008E008002009
:10027000E00E0020E00A0020E00A00200FB404494C
:1002800010B503AA029800F049FA10BC5DF814FBFF
:10029000040000200FB41CB5084B06AA7B44694635
:1002A0000090059800F00BFA04460020694600F023
:1002B00019FA20461CBC5DF814FB00004504000040
:1002C00070B5044685690068C10601D5302600E096
:1002D0002026C00707D070BDD4E9012130469047E1
:1002E000206A401C20626D1EF6D570BD70B50446B4
:1002F00085690078C00707D170BDD4E901212020AD
:100300009047206A401C20626D1EF6D570BD70B506
:100310000C460546012A05D02878800600D5EA69F2
:10032000002302E0012305E05B1C934202D2E05C63
:100330000028F9D1A869E618C01AA861286A1844EB
:1003400028622846FFF7BCFF04E0D5E9012114F834
:10035000010B9047B442F8D32846FFF7C7FF70BDA2
:100360002DE9F0410646002410687529314616A58E
:1003700010D0AFF30080002802DA404213A507E056
:1003800031688A0701D512A502E0490704D511A5F5
:10039000012401E0AFF3008000210A2206F12407C6
:1003A00009E0B0FBF2FCB0FBF2F302FB1C003030C2
:1003B00078541846491C0028F3D123462A46304673
:1003C000BDE8F04100F01CB9000000002D00000065
:1003D0002B00000020000000F0B40D460188090544
:1003E00002D5214C7C4402E01F4C7C440E34002199
:1003F00000F1240608E002F00F071209E75D42EA67
:1004000003721B097754491C52EA0307F3D102789F
:100410000023120704D5702D06D009B10223113430
:100420002246F0BC00F0ECB801231034F8E770B5B8
:1004300004460D4621461068AFF300800246294667
:100440002046BDE870400023C6E7D21D22F0070316
:10045000D3E90023C0E70368126843F02003036078
:100460000823C3610023B7E7740E00002DE9F05F95
:10047000894604464FF0000ADFF874B1FB44C0F827
:1004800020A02046E1688847002874D0252806D09F
:10049000D4E901219047206A401C2062F1E7002640
:1004A0005F462046E16888472028054607DB312D56
:1004B00005D2781910F8200C08B10643F1E7B0070F
:1004C00001D526F00406C4F81CA00027C4F818A023
:1004D0002A2D09D0284600F0ADFE38B304EB87087A
:1004E000303DC8F8185019E059F8041B204604EBB9
:1004F00087029161E1688847012F054618D1E069BC
:10050000002820DA26F020061DE0D8F8180000EBBD
:10051000800005EB40003038C8F818002046E1683C
:100520008847054600F086FE0028EED1012F0AD04C
:100530002E2D08D12046E16888477F1C0546022FF2
:1005400046F02006C4DBA069002803DA404246F0EA
:100550000106A061F00701D026F010066C2D0BD02B
:10056000682D09D04C2D39D06A2D35D0742D35D059
:100570007A2D33D016E038E0E1682F4620468847D0
:10058000B842054609D16C2F26D04FF48060E1684F
:10059000064320468847054604E06C2F1AD04FF4E6
:1005A000807006430DB3A5F14100192802D820350B
:1005B00046F400664A462946204626604E46FFF726
:1005C0001DFE80B101280BD0F61D26F0070000F1BA
:1005D000080956E74020E4E78020D8E70020D6E766
:1005E00006F104094DE7284652E7206A00F002B8F8
:1005F000040E000030BCBDE8C09F704770477047D4
:100600002DE9F0470D4699469246044600F124082C
:100610000168880604D5E06921F01001216000E03E
:100620000120A84201DD471B00E00027A1697A19DB
:1006300002EB0900081AA0612078C00602D4204607
:10064000FFF73EFE002608E0D4E901211AF8060073
:100650009047206A401C761C20624E45F4DB2078CF
:10066000C0060AD52046FFF72BFE06E0D4E901219B
:1006700030209047206A401C2062381EA7F10107F5
:10068000F4DC07E0D4E9012118F805009047206A5E
:10069000401C2062281EA5F10105F3DC2046FFF76F
:1006A00025FE2078000602D50220BDE8F087012053
:1006B000FBE7000001694A1C02610878704700B539
:1006C0008FB0CDE901310021059105497944CDE98B
:1006D000031011466846FFF7C9FE0FB000BD0000C9
:1006E000E5FFFFFF0A6802F8010B0A60704710B5CA
:1006F000436913B1AFF3008001E0FFF708FE01206A
:1007000010BD127800F124010A7000224A70012203
:10071000EDE711684FF0FF32E9E70000074B70B5D5
:100720000D467B44FFF7CBFF0446284600F008F84F
:1007300010B14FF0FF3070BD204670BD6B09000056
:10074000007B00F080007047754600F02BF8AE4645
:1007500005006946534620F00700854618B020B5CD
:10076000FFF77AFDBDE820404FF000064FF000078C
:100770004FF000084FF0000BAC46ACE8C009ACE805
:10078000C009ACE8C009ACE8C00921F007018D46FA
:10079000704710B50446AFF300802046BDE8104016
:1007A000FFF746BD00487047580000200149182057
:1007B000ABBEFEE7260002007047000080B500F0E7
:1007C0002FF907A000F086FB1648016841F400519C
:1007D000016000F025F93E20BDE8804000F074BBC8
:1007E000427574746F6E20507573686564210000E3
:1007F00080B5064805210170017805A0FFF73EFD90
:100800000848016841F00201016080BDB800002085
:100810000A0D696D206865726520636D643A202554
:1008200064210000140401404FF090403A4A0168EE
:1008300041F480610160016821F400610160344885
:10084000016841F080510160016821F000510160B0
:10085000D0F8001441F48071C0F80014D0F80014EE
:1008600021F40071C0F80014D0F8001441F4806144
:10087000C0F80014D0F8001421F40061C0F800148E
:10088000D0F8001441F48021C0F80014D0F800140E
:1008900021F40021C0F80014D0F8001421F04061C8
:1008A000C0F80014016A41F0EE410162016841F4B0
:1008B00020410160016821F4A041016015495358AD
:1008C00043F077035350D0F8001841F42021C0F8CA
:1008D0000018D0F8001821F4A021C0F80018116801
:1008E00041F480311160116821F400311160016818
:1008F00041F420010160016821F4A0010160416A16
:1009000041F488414162416A21F43B4141627047B0
:100910000004004824FCFFFF0010004870B500F000
:100920007FF80BA0FFF7AAFC00F07AF80D4E002527
:100930000DA40A2D08D000F073F856F835102046A3
:10094000FFF79CFC0135F4E7BDE8704000F048BBC0
:100950004C697374206F6620636F6D6D616E647394
:100960003A200000DC00002025730000F0B5274885
:10097000274A284D294B8024016841F0010101607C
:100980001021106820F0F000106040201060D2F8B4
:10099000000440F00200C2F80004286820F00200C1
:1009A0002860D2F8F80340F00200C2F8F8031A48B1
:1009B000017043F8044CD66826F0F006D660202675
:1009C000D660D2F8007427F40057C2F800742F687C
:1009D00047F400572F60D2F8F85345F40055C2F899
:1009E000F85380F821104FF480721A60644A156839
:1009F00045F0200515608177704A1E60156845F046
:100A00002005156080F820101C60F0BD60100240C9
:100A1000080001400C04014007E400E004E100E0AC
:100A2000012000F07FBBC860086840F00C0008603F
:100A3000086840F0010008607047000080B5EFF3DF
:100A4000108072B640F69F710C48416000218160B1
:100A50000721016000F014F8FFF7E6FE00F086F8C9
:100A600000F0A0F800F038F8FFF780FF62B600F061
:100A70008FFBBDE8804000F015B900BF10E000E03A
:100A80001448C16841F48061C160C16841F080517F
:100A9000C160C16841F48021C160C16841F4800136
:100AA000C160416941F480414161016841F0010147
:100AB0000160016841F002010160016841F0040138
:100AC0000160016841F008010160016841F0100116
:100AD000016070474C1002400B48016841F480717E
:100AE00001600A48016841F001010160016841F4B8
:100AF00080710160016821F400710160016841F4B6
:100B000000410160704700BF00700040901002403B
:100B10000248016801310160704700BFD808002019
:100B200010B50F48104CD0F8801041F47001C0F897
:100B300080100C490A6842F001020A6000228A60B3
:100B40000B6823400B604FF48053CB600B6823F499
:100B500080230B608A614FF00061016010BD00BF0F
:100B600008ED00E000100240FFFFF6EA12484FF4E3
:100B7000E1310068B0FBF1F00149FFF754BF00BF5D
:100B8000003801408B4801210170C748018841F0BD
:100B9000080101800248016881F4804101607047CA
:100BA0001404004804484FF4E1310068B0FBF1F050
:100BB0000249FFF738BF00BF000000200048004096
:100BC0007D4801210170B748018841F0080101808A
:100BD000B648016881F0200101607047B0B5174840
:100BE0000188C8B27F2803D00D280BD0082814D163
:100BF000724C2078D8B17F2000F066F92078013857
:100C0000207014E0F44C0025207820444570FFF754
:100C100007FF6848257002210BE0EF4A13781F2B6D
:100C200005D85C1C14701A44517000F04DF9F4485A
:100C300000210170F2480078B0BD00BF24380140A7
:100C4000BCB5144D034614A115A205F586742046C3
:100C5000FFF720FB002001900198284490F80C0138
:100C600050B10198205C00F049F90198205C00F037
:100C70002BF901980130EEE70D2000F03FF9E24832
:100C800002210170DE48002101704B4801700020F4
:100C9000BCBD00BF7C01002025733D25730D000005
:100CA0004331000080B5022000F03CFA064800F015
:100CB00011F9022000F0EEF9022000F033FA3E2094
:100CC000BDE8804000F000B9D6120008FEB5002053
:100CD000364D374C029001902878012830D1354E9E
:100CE000307802282CD1354F0020019001980199CD
:100CF00001313844019140782028F7D101983844D7
:100D0000407878B9FFF78CFE2D4800F0E3F800F04A
:100D100067F907E001983844407800F0EFF801984F
:100D2000013001900198384440780028F2D10D201C
:100D300000F0E4F8022028700020387030701DE0C8
:100D4000287802281AD11C4D002028702088C0B2B3
:100D50003E280BD1287860B9012000F07FF9029875
:100D60000130029002986428F4DD13E000F0ACF842
:100D700004E0208820280DD100F032F954F8080C46
:100D8000800603D40C4800210170FEBD21880DA00F
:100D9000FFF774FA084800210170FFF741FE13A025
:100DA000FFF76CFA00F01CF9FEBD00BFD10800206F
:100DB00024480040B8000020B9000020BA000020FC
:100DC000A8120008756E6B6E6F776E207374617475
:100DD000652C207573617274207265736369657622
:100DE00065643A203078252E3278000057694669CC
:100DF0002072656164204572726F722100000000EC
:100E0000F8B5FFF70DFE1EA0FFF738FAFFF708FE52
:100E1000244D254E254FEFF3108072B6686880068A
:100E20000AD5A88900F050F8288840F008002880EA
:100E3000386880F02000386070688006EED5B08990
:100E4000C4B2602C10D0204600F03EF8204600F0DE
:100E500055F8308840F008003080D7F8000480F45E
:100E60008040C7F80004D9E7FFF7DAFD10A0FFF7CC
:100E700005FAFFF7D5FD62B6BDE8F84000F0B0B85E
:100E8000456E746572696E672057694669206469AA
:100E90007265637420636F6D6D616E64206D6F6445
:100EA0006500000018480040183801401400004850
:100EB00045786974696E6720436F6D6D616E64205B
:100EC0004D6F6465000000000B490A681206FCD5EE
:100ED0008881704781B0002100910749009A825CA7
:100EE00042B10A681206FCD5009A531C0093825C3A
:100EF0008A81F3E701B070471C38014002490A6853
:100F00001206FCD5888170471C480040B0B5494B9B
:100F10000022142A04D053F832401CB10132F8E701
:100F2000002009E043F83200501C03EBC202002508
:100F3000C4B2516043F83450C0B2B0BD81B0002299
:100F40008DF803209DF80320835C0A789A4202D032
:100F5000203B934210D142B99DF80320825C6AB1D4
:100F60009DF80320825C202A0AD09DF803200131DD
:100F700001328DF80320E5E7002009E0042000E0BD
:100F8000062004490A7802F0F1021043087001209B
:100F900001B07047D008002070B500F037F819484C
:100FA000244E0025441CA02D0DD0715959B1204666
:100FB000FFF7C4FF08350028F5D0701950F8040C6D
:100FC000BDE8704000470548FFF784FFFFF728FDA4
:100FD000BDE8704000F004B8BA0000209512000887
:100FE00080B5074800210170064801708948012139
:100FF0000170FFF715FD3E20BDE88040FFF764BF9C
:10100000B8000020BA000020D108002010B509481F
:1010100000210B4C016008480849A04709480A49CB
:10102000A0470A480A49A0470A480B492246BDE89A
:1010300010401047DC000020BC12000841110008DD
:101040000D0F0008C6120008CD0C0008CB120008D6
:10105000010E0008C11200081D09000810B5EFF3C9
:10106000108172B6094A08490B68136062B61368AA
:10107000EFF3108472B60C68146062B61468E41A58
:101080008442F5D310BD00BFD8080020D40800204A
:10109000FFF71ABF10B50446FFF7C2FC07A004A172
:1010A000012C08BF0846BDE81040FFF713BF00BF82
:1010B0005F5F5F5F5F5F5F5F000000005F5F5F5FBC
:1010C0005F5F5F5F5F5F5F5F5F5F5F00FFF7B6FC63
:1010D0000AA00EA10322FFF7B3FD114C20780128CE
:1010E00008BFFFF77BFD2078022808BFFFF754FFF9
:1010F00060780028F2D0FFF7E9FDEFE7566F6461F2
:10110000666F6E652D463931390000004577414DD7
:1011100075414D4E5072484854754E6800000000AD
:10112000B800002070B5054D04460026A642A8BFB1
:1011300070BD2846FFF7CEFE0136F7E7B91200086A
:1011400010B50D4C20682268216863686368636885
:10115000BF2303EA1141C3B2C2F3072207A0FFF77E
:101160008DF82068400202D508A0FFF787F8BDE897
:101170001040FFF735BF00BF00280040252E325831
:101180003A252E32583A252E32582000504D000074
:10119000BCB500241D4D01940094286940F4807072
:1011A00028616420FFF75AFF286840F480702860A7
:1011B0004FF4FA70FFF752FF1548184A295841F4C6
:1011C00000712950134801210170134804701388DD
:1011D000DBB23E2B08BF0091009D202B00D14DB902
:1011E000019B01330193019B962B06DC0378002BB6
:1011F000FCD0EBE700210170BCBD00210170FFF7BE
:101200000FFC07A0FFF73AF8BCBD00BF181000485C
:1012100000F8FFFFD1080020B9000020244800405A
:101220005749464920496E6974204572726F722190
:101230000000000030380A2801D201207047002049
:101240007047F1EE100A4FF6FF71C0F2C03120EA8C
:10125000010040F04070E1EE100A70473031323347
:1012600034353637383941424344454640305800DA
:10127000303132333435363738396162636465660C
:101280004030780004000008000000000000000268
:1012900000010000105B215D2057726F6E672043D4
:1012A0006F6D6D616E6421005B215D2057726F6E02
:1012B0006720496E70757421000A0D0054494D4530
:1012C0000048454C50005749464900574946494C4B
:1012D000495354454E0057454C434F4D4520544FBC
:1012E0002046434D44000000081300080000002081
:1012F00058000000C40100086013000858000020D6
:10130000880E0000E001000800093D000100000017
:1013100000000000000000000000000000000000CD
:1013200000000000000000000000000000000000BD
:1013300000000000000000000000000000000000AD
:10134000000000000000000000000000000000009D
:10135000000000000000000000000000000000008D
:040000050800023DB0
:00000001FF
