:020000040800F2
:10000000500800203D020008450200084702000891
:10001000490200084B0200084D02000800000000E1
:10002000000000000000000000000000011C0008AB
:100030005102000800000000E1190008311C00080E
:10004000570200085702000857020008570200082C
:100050005702000857020008570200082D08000840
:10006000570200085702000857020008570200080C
:1000700057020008570200085702000857020008FC
:1000800057020008570200085702000857020008EC
:1000900057020008570200085702000871080008BC
:1000A00057020008570200085702000857020008CC
:1000B00057020008570200085702000857020008BC
:1000C00057020008570200085702000857020008AC
:1000D00057020008291D0008570200084D1D00089E
:1000E000D10700085702000857020008570200080D
:1000F000570200085702000857020008570200087C
:10010000570200085702000857020008B91B0008F0
:10011000191D00085702000857020008570200087E
:10012000570200085702000857020008570200084B
:10013000570200085702000857020008570200083B
:10014000570200085702000857020008570200082B
:10015000570200085702000857020008570200081B
:10016000570200085702000857020008570200080B
:1001700057020008570200080000000000000000BD
:10018000570200085702000800F002F800F047F894
:100190000AA090E8000C82448344AAF10107DA45E2
:1001A00001D100F03CF8AFF2090EBAE80F0013F0ED
:1001B000010F18BFFB1A43F001031847F81F000096
:1001C00018200000103A24BF78C878C1FAD8520726
:1001D00024BF30C830C144BF04680C6070470000C1
:1001E0000023002400250026103A28BF78C1FBD840
:1001F000520728BF30C148BF0B607047642900F028
:100200009980782900F0FD80732900F08D8200200C
:1002100070471FB501F073FF1FBD10B510BD00F092
:100220009DFA1146FFF7F5FF01F0E6FD00F0BBFA7D
:1002300003B4FFF7F2FF03BC00F0C2FA094880479D
:1002400009480047FEE7FEE7FEE7FEE7FEE7FEE7B8
:10025000FEE7FEE7FEE7FEE704480549054A064BD0
:1002600070470000BD1C00088901000850020020F2
:100270005008002050040020500400200FB404490E
:1002800010B503AA029800F053FA10BC5DF814FBF5
:100290000400002070B5044685690068C10601D5D8
:1002A000302600E02026C00707D070BDD4E9012128
:1002B00030469047206A401C20626D1EF6D570BD06
:1002C00070B5044685690078C00707D170BDD4E9D0
:1002D000012120209047206A401C20626D1EF6D527
:1002E00070BD70B50C460546012A05D028788006F9
:1002F00000D5EA69002302E0012305E05B1C93427C
:1003000002D2E05C0028F9D1A869E618C01AA861F9
:10031000286A184428622846FFF7BCFF04E0D5E9A4
:10032000012114F8010B9047B442F8D32846FFF797
:10033000C7FF70BD2DE9F0410646002410687529FD
:10034000314616A510D0AFF30080002802DA4042F3
:1003500013A507E031688A0701D512A502E0490715
:1003600004D511A5012401E0AFF3008000210A2289
:1003700006F1240709E0B0FBF2FCB0FBF2F302FB4C
:100380001C00303078541846491C0028F3D123460D
:100390002A463046BDE8F04100F043B900000000B5
:1003A0002D0000002B00000020000000F0B40D46DE
:1003B0000188090502D5214C7C4402E01F4C7C4495
:1003C0000E34002100F1240608E002F00F071209A4
:1003D000E75D42EA03721B097754491C52EA03079E
:1003E000F3D102780023120704D5702D06D009B18D
:1003F000022311342246F0BC00F013B9012310345B
:10040000F8E770B504460D4621461068AFF300804A
:10041000024629462046BDE870400023C6E7D21DAB
:1004200022F00703D3E90023C0E70368126843F012
:10043000200303600823C3610023B7E75C1D0000AD
:100440002DE9F05F894604464FF0000ADFF874B1E9
:10045000FB44C0F820A02046E1688847002874D0FB
:10046000252806D0D4E901219047206A401C20624B
:10047000F1E700265F462046E168884720280546C8
:1004800007DB312D05D2781910F8200C08B106438E
:10049000F1E7B00701D526F00406C4F81CA0002738
:1004A000C4F818A02A2D09D0284601F021FE38B33F
:1004B00004EB8708303DC8F8185019E059F8041BC0
:1004C000204604EB87029161E1688847012F0546C9
:1004D00018D1E069002820DA26F020061DE0D8F8BF
:1004E000180000EB800005EB40003038C8F8180019
:1004F0002046E1688847054601F0FAFD0028EED164
:10050000012F0AD02E2D08D12046E16888477F1C94
:100510000546022F46F02006C4DBA069002803DA56
:10052000404246F00106A061F00701D026F0100617
:100530006C2D0BD0682D09D04C2D39D06A2D35D0BB
:10054000742D35D07A2D33D016E038E0E1682F468F
:1005500020468847B842054609D16C2F26D04FF473
:100560008060E168064320468847054604E06C2F1A
:100570001AD04FF4807006430DB3A5F1410019283D
:1005800002D8203546F400664A46294620462660B1
:100590004E46FFF733FE80B101280BD0F61D26F042
:1005A000070000F1080956E74020E4E78020D8E77B
:1005B0000020D6E706F104094DE7284652E7206AF5
:1005C00000F002B8EC1C000030BCBDE8C09F4FF04A
:1005D000000200B5134694469646203922BFA0E893
:1005E0000C50A0E80C50B1F12001BFF4F7AF09079F
:1005F00028BFA0E80C5048BF0CC05DF804EB890090
:1006000028BF40F8042B08BF704748BF20F8022BD2
:1006100011F0804F18BF00F8012B704770477047EA
:1006200070472DE9F0470D4699469246044600F181
:1006300024080168880604D5E06921F010012160D2
:1006400000E00120A84201DD471B00E00027A1696E
:100650007A1902EB0900081AA0612078C00602D4BA
:100660002046FFF717FE002608E0D4E901211AF81A
:1006700006009047206A401C761C20624E45F4DB41
:100680002078C0060AD52046FFF704FE06E0D4E92C
:10069000012130209047206A401C2062381EA7F1BB
:1006A0000107F4DC07E0D4E9012118F805009047C0
:1006B000206A401C2062281EA5F10105F3DC2046BB
:1006C000FFF7FEFD2078000602D50220BDE8F08786
:1006D0000120FBE701694A1C02610878704700B5F8
:1006E0008FB0CDE901310021059105497944CDE96B
:1006F000031011466846FFF7A3FE0FB000BD0000CF
:10070000E5FFFFFF10B5436913B1AFF3008001E0CF
:10071000FFF7E7FD012010BD127800F124010A70F7
:1007200000224A700122EDE711684FF0FF32E9E73D
:10073000074B70B50D467B44FFF7D1FF04462846B2
:1007400000F008F810B14FF0FF3070BD204670BDCA
:1007500083160000007B00F080007047754600F0B3
:100760002BF8AE4605006946534620F00700854643
:1007700018B020B5FFF770FDBDE820404FF000062F
:100780004FF000074FF000084FF0000BAC46ACE80C
:10079000C009ACE8C009ACE8C009ACE8C00921F068
:1007A00007018D46704710B50446AFF30080204620
:1007B000BDE81040FFF73CBD0048704758000020DE
:1007C00001491820ABBEFEE726000200704700007A
:1007D00010B501F015F811A0FFF750FD734801683E
:1007E00041F40051016001F00BF83E2001F0CCFA19
:1007F0002F4C4FF48060A0474FF40060A0474FF4A7
:100800008050A0474FF40050A0474FF48040A047CD
:100810004FF400402146BDE810400847427574740B
:100820006F6E2050757368656421000080B50848BC
:100830000521017007A0FFF721FD5C48016841F028
:10084000020101600220BDE8804000F0A7B800BFAF
:10085000300100200A0D696D20617420455854490B
:10086000315F49525148616E646C6572000000004E
:1008700010B508A0FFF702FD0D4C2020A047402036
:10088000A0478020A0474FF480702146BDE810406B
:10089000084700BF0A0D696D20617420455854490E
:1008A000395F355F49525148616E646C6572000072
:1008B0009D09000880B500F061FF2248D0F8DC13E4
:1008C00021F04061C0F8DC131F490A6A42F0EE4291
:1008D0000A620A6842F420420A600A6822F4A042CE
:1008E0000A601A4A536A43F077035362136843F469
:1008F00020231360136823F4A0231360144A8B5839
:1009000043F088038B504FF09042136843F00A0382
:100910001360136823F0050313600A6842F4200291
:100920000A604A6842F440624A608A6842F470028F
:100930008A60CA6842F4A002CA60016841F4886112
:10094000016080BD2404004800040048000C0048F9
:1009500020FCFFFFB0B590F82510022918D10168DE
:10096000826BD0E910340D6825F00E050D600D681E
:1009700025F001050D60012505FA04F159600021FB
:1009800080F8241080F825502AB19047002102E019
:100990000421C16301210846B0BD704703490A68BC
:1009A000024208BF70470860FFF7F7BF1404014018
:1009B00001480068704700BF4802002090F84120BD
:1009C000202A03D190F84020012A01D1022111E010
:1009D000242280F841200268136823F00103136089
:1009E000136823F48053136013681943734600F0AF
:1009F00019FF9E460846704700B3B0B5044690F80C
:100A0000410018B900F0B9FF00F0CFF8242084F8B5
:100A10004100D4E90003D4E90212056823F07063B1
:100A2000012A25F0010505600361836823F4004372
:100A3000836005D141F40041816009E001207047E5
:100A400041F40441022A816004BF4FF40061416017
:100A500041680F4A04F1100511434160C16821F457
:100A60000041C1602ECD114341EA0321C160216ADA
:100A700029430160016841F001010160002020214B
:100A8000606484F84110206384F84200B0BD00BF68
:100A9000008000022DE9FE4F00F0BFFE09D10C9D41
:100AA00055B1DDF834B0BBF1000F05D000F013FFF5
:100AB00005D1022000F076B8012000F073B80120C3
:100AC0001F4616468A4600F0D7FE8146009000F089
:100AD00043FF10B1032000F065B822200E9900F00A
:100AE000D2FECDE900192046514600F047FD40B145
:100AF00084F84080616C0320042908BF012000F0C5
:100B000051B8618D2548B1F5807F06D3FF21FF22C2
:100B10004FF080732185009005E0618D4FF00073E8
:100B200021850090CAB22046514600F051FD0026B2
:100B3000FF272046042100222B46CDF8009000F02C
:100B400059FD0028C6D1616A20684A1C6262406A69
:100B5000087000F017FF15D1608D98B120468021F4
:100B600000222B46CDF8009000F044FD0028B1D1C2
:100B700000F0B5FE02D300F0E0FE01E000F0CEFE92
:100B800000F026FD608D0028D3D100F0ECFE002897
:100B9000B0D120682021024B00F087BE00240080E5
:100BA00000E800FE1EBCBDE8E08F704710B50446AB
:100BB00093484FF47A710068B0FBF1F000F048FC04
:100BC0004FF0FF302146002200F00CF8002010BD4D
:100BD000734600F04AFE9E46014A00F079BE00BF0F
:100BE00000E100E070B50D4B4FF0FF351B68C3F31B
:100BF0000223DC1E83F0070338BF002405FA04F645
:100C0000B243042B28BF042305FA03F39943A14000
:100C10001143BDE8704000F0E3BD00BF0CED00E003
:100C20001949B0F5007F0A6802F4C06219D1B2F523
:100C3000007F1ED00868012262F34A200E4A086035
:100C40006F480068B0FBF2F032225043C0430130DD
:100C500002D24A695205FAD44869400509D50320F1
:100C60007047B2F5806F04D00868022262F34A2010
:100C700008600020704700BF40420F000248006833
:100C800000F4C060704700BF007000402DE9F843D9
:100C90000D4659490446086800F00700A84209D2E9
:100CA000086820F0070028430860086800F0070083
:100CB000A84251D12068934F8946810705D5A16884
:100CC0003A6822F0F00211433960C0073AD1D9F8EE
:100CD000000000F00700A8420CD9D9F8000020F06D
:100CE00007002843C9F80000D9F8000000F0070009
:100CF000A84231D12068410705D5E1683A6822F45D
:100D0000E06211433960000706D52069396821F493
:100D1000605141EAC000386000F074F83968F02290
:100D200092FAA2F201F0F001B2FA82F2D140334A13
:100D3000515CC840324908600F20FFF737FF0020A0
:100D4000BDE8F883606850B103284BD002284ED12B
:100D500057F8081C890306D40120BDE8F88357F82A
:100D6000081C8907F8D5396821F003010843386069
:100D7000FFF71EFE0646606841F2883803281FD040
:100D8000022829D050B9386810F00C0F9FD0FFF717
:100D90000FFE811B03204145F5D9D1E7386800F0EB
:100DA0000C00042893D0FFF703FE811B032041456C
:100DB000F4D9C5E7FFF7FCFD811B03204145BFD8EF
:100DC000386800F00C000C28F4D180E7FFF7F0FD44
:100DD000811B03204145B3D8386800F00C00082877
:100DE000F4D174E757F8081C8901B5D5BBE757F86B
:100DF000081C4905B0D5B6E7002002405121000883
:100E00000000002010B53F49086810F00C0F09D011
:100E1000086800F00C000C2811D1486800F00300AD
:100E200001280CD151F8080C000710D4D1F88C20FF
:100E30004FF4706090FAA0F002F470620EE008685F
:100E4000002200F00C00042812D1304818E051F8BC
:100E5000082CF02090FAA0F002F0F002B0FA80F036
:100E6000002322FA00F02A4A52F82000024601E04C
:100E7000254808230C6804F00C049C4218BF00208D
:100E80000B6803F00C030C2B3BD14B6848687024B3
:100E900094FAA4F400F07000B4FA84F403F00303AD
:100EA000E0400130032B08D0022B0DD14FF4FE425D
:100EB0004B6892FAA2F4154A0BE04FF4FE424B68DD
:100EC00092FAA2F4104A04E04B684FF4FE4494FAFC
:100ED000A4F4B2FBF0F0B4FA84F203F4FE434968E0
:100EE00023FA02F250434FF0C06201F0C06192FA5F
:100EF000A2F2B2FA82F2D140022202EB4101B0FB2F
:100F0000F1F010BD0810024000127A000024F40035
:100F1000642100082DE9FC4104460078DB4EC00640
:100F200056D42078C00717D0B06800F00C0008280D
:100F30000BD0B06800F00C000C2840F0E480F068A2
:100F400000F00300032840F0DE803068800303D502
:100F50006068002800F01E812078800713D5B068F3
:100F600000F00C00042840F09D803068400503D557
:100F7000E068002800F00E812069716821F0F851C6
:100F800041EA006070602078000739D4207840077B
:100F90004DD4A06A002800F0AD81B16801F00C01C9
:100FA0000C2900F0F7803168022821F0807131604F
:100FB00040F05081FFF7FCFC05463068800140F1AD
:100FC0006781FFF7F5FC411B03200229F5D9BAE13F
:100FD000B06810F00C0F4BD03068A169002900F008
:100FE000A28040F0010000F04BFC0546306880070D
:100FF00000F1A880FFF7DCFC401B0228F6D916E1BF
:10100000D6F894006169002900F09F8040F001004B
:10101000C6F89400FFF7CCFC0546D6F8940080078C
:10102000B4D4FFF7C5FC401B0228F6D9FFE0B06D31
:1010300010F0805808D1B06D40F08050B065B06DB0
:1010400000F0805001900198C24F3868C00548D424
:10105000386840F480703860FFF7AAFC05463868AD
:10106000C0053ED4FFF7A4FC401B0228F7D9DEE000
:101070003068800703D5A069002800F08B80206AC3
:10108000316809074EBF3168D6F89410090901F09C
:10109000F00188426BD900F031FD00287AD100F0D0
:1010A000CDFB7AE0B06800F00C000C2805D1F068A8
:1010B00000F0030002283FF458AF3068E1680029CF
:1010C00000F0B88040F4807000F0DAFB054630682C
:1010D00040053FF551AFFFF76BFC401B0228F6D9E6
:1010E000A5E0A068012807D005286AD1D6F89000AD
:1010F00040F00400C6F89000D6F8900040F00100DF
:10110000C6F890006CE06068B0F5803F06D0B0F59E
:10111000A02F75D1306840F480203060306840F4F2
:101120008030306077E020F0010000F0A9FB054638
:10113000306880077FF5F5AEFFF73AFC401B0228C8
:10114000F6D974E000F07AFBEBE620F00100C6F877
:101150009400FFF72DFC0546D6F8940080077FF534
:1011600015AFFFF725FC401B0228F5D95FE0316879
:1011700041F008013160316821F0F0010143316034
:10118000E169726822F47F4242EA0121716000F055
:10119000B5FC10B10120BDE8FC81FFF733FEB1685A
:1011A000F02292FAA2F201F0F001B2FA82F2D140FA
:1011B000664A515CC840664908600F20FFF7F6FC9C
:1011C000AFE6D6F89010002821F00101C6F8901083
:1011D000D6F8901021F00401C6F8901000F08D8030
:1011E000FFF7E6FB054641F28837D6F89000800706
:1011F00000F19380FFF7DCFB401BB842F5D916E005
:101200003168002821F480313160316821F4802177
:10121000316000F08B80FFF7CBFB05463068800320
:101220003FF59AAEFFF7C4FB401B6428F6D90320B4
:10123000BDE8FC8120F4807000F022FB0546306898
:1012400040057FF5A0AEFFF7B3FB411B0320022949
:10125000F5D978E03068000106D43068800003D406
:10126000F06820F00300F060F0683B490840F0604F
:10127000FFF79EFB0446306880013BD5FFF798FBE3
:10128000011B03200329F6D35DE000BF00100240DC
:1012900004F12C05314F246C2FCD07EA43336FF056
:1012A0000F0707EB011141EA022108432C491843BB
:1012B00001EA0551A1F5001108434FF07E4101EA12
:1012C000046101F17E410843F060306840F08070B5
:1012D0003060F06840F08070F060FFF769FB044612
:1012E0003068800106D4FFF763FB011B032002294D
:1012F000F6D928E00020BDE8FC81FFF759FB054640
:1013000041F28837D6F89000800706D5FFF750FBEA
:10131000411B0320B942F5D915E0B8F1000F7FF465
:1013200038AEB06D20F08050B06532E6FFF740FB7C
:101330000546306880037FF50FAEFFF739FB411B90
:1013400003206429F5D9BDE8FC8100BF51210008C4
:101350000000002000700040FFFFEEFE0000FEFFD6
:101360000000E0FF70470000BCB50446006841681B
:10137000826812F0400303D1D50701D04D0617D47F
:10138000950701D50D0611D412F4B07F57D08D0604
:1013900055D5EBB194F85D30032B0ED100210191AE
:1013A000C168019180680190019848E0216D00E0DA
:1013B000E16C2046BDE8BC400847236E43F00403BF
:1013C000236600230193C368019383680193019B03
:1013D00093060CD5236E43F001032366002301938B
:1013E00083680193036823F040030360019BD205E7
:1013F00008D5226E42F0080222660022019282681D
:101400000192019A226ED2B1426822F0E00242605B
:101410000122890784F85D2012D0416821F0030180
:101420004160A06D18B109498163FFF793FA606DBF
:1014300028B106498163BDE8BC40FFF78BBABCBD4B
:101440002046BDE8BC40FFF78DBF00BFE91B000888
:10145000411E0020B0EB116F01D001207047044AFB
:10146000F023516003490B700721906011607047B1
:1014700010E000E023ED00E010B594B01B4800221E
:101480000024016A41F480010162016A01F48001D3
:1014900001910199016841F480010160016821F422
:1014A000800101601F200F21FFF79CFB1F20FFF729
:1014B0008FFB20200F210022FFF794FB2020FFF755
:1014C00087FB0120CDE90844CDE90544CDE903407F
:1014D000074802900748019001AC2046FFF78CFABC
:1014E00020460021FFF76AFA14B010BD3810024000
:1014F000812670000058004000688169890701D585
:10150000002181628169C90703D1816941F001012C
:1015100081617047F8B5044600680E468169C906C6
:1015200001D40020F8BD1546771C8169890609D4CD
:10153000002FFAD0AEB1FFF73BFA401BB04210D8F3
:101540002068F2E71021C1612021C16100F0EFF9AC
:101550002068094A4168114041600420606401200C
:1015600000E00320202184F84110002184F840107D
:1015700084F84210F8BD00BF00E800FE2DE9FC41F0
:101580000446124815461E46DAB20023009000F0C9
:101590009CF9DDE9088700F0EBF930B1616C0320BC
:1015A000042908BF0120BDE8FC81012E03D000F012
:1015B000A4F90028F2D100F0C8F94021009700F00A
:1015C00019F8002818BF0320BDE8FC810020008026
:1015D000B0B500686FF39F21054D1943446841EA97
:1015E0000241049A2C40114321434160B0BD00BF29
:1015F000009800FC2DE9F843DDF820801D46914657
:101600000F4604465E1C206880693840C01BB0FA53
:1016100080F0400948450ED1002EF4D02DB1FFF7DF
:10162000C7F9A0EB0800A842EDD9714600F05BF9BC
:101630008E46BDE8F8830020BDE8F88370B51546F6
:101640000E46044620688069800611D400F061F9D6
:1016500080B926B1FFF7ACF9401BB042F2D9606CFB
:1016600040F020006064714600F03DF98E4670BD88
:10167000002070BD012070BDF8B515460E46044629
:101680004F1C20688069800713D400F042F990B99C
:10169000002FF6D026B1FFF78BF9401BB042F0D9EE
:1016A000606C40F020006064714600F01CF98E46CA
:1016B000F8BD0020F8BD0120F8BD000070B5294834
:1016C0002A4D2C4B10228024016841F00101016059
:1016D0002548016821F0F001016040210160D0F847
:1016E000001441F00201C0F80014296821F0020141
:1016F0002960D0F8F81341F00201C0F8F8131C4932
:101700000A7043F8044CC66826F0F006C66020262E
:10171000C660D0F8006426F40056C0F800642E6855
:1017200046F400562E60D0F8F85345F40055C0F842
:10173000F8534FF4807081F8212018600E48D0F8DB
:10174000005445F02005C0F800544FF4801581F88E
:101750002D201D60056845F02005056081F82020DA
:101760001C6070BD60100240080001400C04014084
:1017700007E400E004E100E0004800404FF0904042
:10178000016841F480610160016821F40061016039
:1017900011491248425842F080524250425822F0B9
:1017A00000524250016841F480710160016821F4E7
:1017B00000710160016841F480610160016821F4F9
:1017C00000610160016841F480210160016821F439
:1017D00000210160704700BF00FCFFFF00080048C7
:1017E00010B5054A002800F00F03044C024448BF1E
:1017F0001A190801107010BD00E400E014ED00E0BB
:10180000012000F0A1BBC860086840F00C0008602F
:10181000086840F0010008607047044690F84100F5
:10182000202870471160116841F00101116000210A
:10183000202280F8401080F841207047306840F046
:1018400008003060D4E90701326822F0F002114349
:101850003160716821F47F4141EA00207060704777
:10186000018841F008010180704700F01F0101224A
:10187000400902FA01F1704784F84000FFF798B878
:101880003060FFF795B84FF0000832463B4684F8C9
:101890004100402084F84200C4F844806562C4F8E6
:1018A0003480A4F82AB00D467047C16142681A40DE
:1018B0004260002084F8411084F8400084F842001F
:1018C00000F000B81EBCBDE8E08F2046FFF780BEE8
:1018D00042F82010704794F8400001287047608D4E
:1018E000B0F5807F7047202084F84100002084F804
:1018F000400084F84200032070472068290A3A46D5
:10190000816220464146FFF7B7BE3168C96A884206
:101910007047204631462A46FFF7FCBD608D514690
:101920004FF000732085C2B22046009670472046D3
:10193000FFF7E2BD294600F036BB2785009620461A
:101940005146FF224FF0807370472068E9B20022B1
:10195000434681622046704720464FF400410122F1
:101960001923FFF747BE204629464A46FFF766BEC1
:10197000204641463A46FFF77FBE002084F84000EB
:1019800020467047208D01382085618D0139000483
:1019900061857047F8B572B600F060F8FEF78AFF0F
:1019A00000F0ACF9FFF768FD00F0EAF8FFF786FEFB
:1019B00000F0D6F9002001210DF10F0201238DF86E
:1019C0000F004FF47A70CDE90021BF212022029050
:1019D0000148FFF75FF88FBD3401002000000000D0
:1019E000EFF30980BFF36F8F154B1A681EF0100FCD
:1019F00008BF20ED108A20E9F04F10602DE90900A2
:101A00004FF0500080F31188BFF34F8FBFF36F8FFB
:101A100000F0D6FA4FF0000080F31188BDE809000D
:101A20001968086800F00EB81EF0100F08BF00F02B
:101A30000EB880F30988BFF36F8F704700BF00BFF7
:101A4000B800002030C8B0E8C04FFFF7EDBFB0ECE1
:101A5000088AB0EC08CAFFF7ECBF000081B0264846
:101A6000C16841F48061C160C16841F08051C160CA
:101A7000C16841F48021C160C16841F48001C16046
:101A8000C16841F40021C160C16801F400210091E6
:101A90000099416941F480414161016841F00101CF
:101AA0000160016801F0010100910099016841F0B5
:101AB00002010160016801F00201009100990168D2
:101AC00041F004010160016801F0040100910099F6
:101AD000016841F008010160016801F0080100910E
:101AE0000099016841F010010160006800F01000E9
:101AF0000090009801B070474C100240BCB51E4DDC
:101B000004462868C0000FD4286840F08050286040
:101B1000286800F0805001900198FFF7AFF829681D
:101B200021F08051296001E0FFF7A8F8B0F5007FAF
:101B300006D1812C08D30120A02C88BF02200DE003
:101B4000802C03D9032009E0002007E0A4F17000F5
:101B5000B0FA80F04009802C08BF022007490A68CB
:101B600022F0070202440A60096801F00701081A1E
:101B700018BF0120BCBD00BF581002400020024029
:101B80000B48016841F4807101600A48016841F026
:101B900001010160016841F480710160016821F474
:101BA00000710160016841F400410160704700BFAD
:101BB000007000409010024080B504A0FEF75EFB6C
:101BC0000848BDE88040FFF7CFBB00BF0A0D696D34
:101BD00020617420535049335F49525148616E640B
:101BE0006C65720080010020806A0021A0F8461018
:101BF000C187FFF7B7BB0000000000000000000035
:101C0000074B1968086800F00DB880F30988BFF326
:101C10006F8F4FF0000080F31188704700BF00BF46
:101C2000B800002030C8B0E8C04FFFF7EEBF00009A
:101C300080B54FF0500080F31188BFF36F8FBFF372
:101C40004F8F00F0E9F918B103484FF0805101605F
:101C5000002080F3118880BD04ED00E0B0B596B09F
:101C600005AC4021201DFEF7B2FC68461421FEF7AA
:101C7000AEFC002560200F95CDE90C5001200B90A3
:101C8000102005902046FFF745F908B172B6FEE72F
:101C90000F200021019500906846CDE9025504957A
:101CA000FEF7F4FF08B172B6FEE74FF40070FEF7DE
:101CB000B7FF08B172B6FEE716B0B0BD0C480E4BC8
:101CC000016841F4700101600A48016841F00101B6
:101CD00001600021816002681A4002604FF4805266
:101CE000C260026822F4802202608161704700BFF6
:101CF00088ED00E000100240FFFFF6EA04484FF4D0
:101D000016510068B0FBF1F00249FFF77CBD00BF3F
:101D100000000020004C00400A48012101700148E9
:101D2000FFF79EBD184C00400548016881F00E0188
:101D300001600448012101700348FFF791BD00BF15
:101D400014040048300100201838014002480121E5
:101D500001700248FFF784BD4C0200201848004083
:101D600080B5022000F0F0F8064800F013F80220D9
:101D700000F026F8FFF744FD3E20BDE8804000F06B
:101D800003B800BFA42100080B490A681206FCD55D
:101D90008881704781B0002100910749009A825CD8
:101DA00042B10A681206FCD5009A531C0093825C6B
:101DB0008A81F3E701B070471C4C0040FFF7E4BF95
:101DC00010B50446FFF71CFD07A004A1012C08BFB5
:101DD0000846BDE81040FFF7DDBF00BF5F5F5F5FF3
:101DE0005F5F5F5F000000005F5F5F5F5F5F5F5F7F
:101DF0005F5F5F5F5F5F5F00FFF730FFFFF7CAFD68
:101E0000012000F0A1F81B4CDFF870B02CA531A622
:101E100033A70FF2D8080FF2E4090FF2F00A4FF0DF
:101E20009040202100F0AAF821681348D847616843
:101E300013A0D847A16816A0D847E16818A0D847D2
:101E400021691BA0D84761692846D847A169304657
:101E5000D847E1693846D847216A4046D847616A81
:101E60004846D847A16A5046D8474FF47A7000F0E8
:101E700055F8D4E700580040972100087D0200087B
:101E8000435232203A25782020200A0D000000001D
:101E90004F4152313A25782020200A0D00000000E1
:101EA0004F4152323A25782020200A0D00000000D0
:101EB00054494D494E47523A25782020200A0D00BA
:101EC00054494D454F5554523A25782020200A0D4B
:101ED000000000004953523A25782020200A0D00C6
:101EE0004943523A25782020200A0D00504543529C
:101EF0003A25782020200A0D000000005258445254
:101F00003A25782020200A0D000000005458445241
:101F10003A25782020200A0D0000000082B0002120
:101F20000191019A8242A4BF02B070470091009AC9
:101F3000B2F57A7F04DA00BF009A01320092F6E728
:101F4000019A01320192ECE770B5054D0446002676
:101F5000A642A8BF70BD2846FFF71CFF0136F7E771
:101F6000942100086048016A096819B1016AC968CA
:101F7000096801E04FF0FF31016370474269514049
:101F800041617047D0E9013201699A60826853600B
:101F90004B68834208BF4A600A68013A0A6000221F
:101FA00002610868704710B5026843689C68013296
:101FB000C1E901340861026098689960416010BD10
:101FC0004948816911B10121816270470021474A66
:101FD00081624168B1FA81F1C9B2C1F11F0101EB1F
:101FE000810152F821306BB102EB810252F8041FDB
:101FF0004968131D9942116001D149681160C9688F
:10200000016070474FF0500080F31188BFF36F8F6D
:10201000BFF34F8FFEE700BF2DE9F047324EB069A6
:1020200020B1706B00240130706359E0F06910F149
:10203000010AC6F81CA014D3306A006840B14FF002
:10204000500080F31188BFF36F8FBFF34F8FFEE70F
:10205000306A716A31627062B06B0130B063FFF751
:1020600081FF306B002482452CD3DFF880904FF045
:102070000108306A006810B3306AC068C7683D461E
:1020800055F8040F82451CD32846FFF77BFFB86A3A
:1020900018B107F11800FFF775FFF86A726808FABF
:1020A00000F100EB8000114309EB80007160FFF745
:1020B00041FCF86AFFF729FC28BF4446D9E74FF0F6
:1020C000FF30306330680949C06A00EB800051F886
:1020D0002000012888BF0124B06A002818BF01240D
:1020E0002046BDE8F08700BFB8000020E4010020D2
:1020F00030380A2801D20120704700207047F1EEE5
:10210000100A4FF6FF71C0F2C03120EA010040F022
:102110004070E1EE100A70473031323334353637D3
:10212000383941424344454640305800303132331B
:10213000343536373839616263646566403078001B
:102140000400000800000000000000020001000080
:102150001000000000000000000102030406070850
:1021600009000000A0860100400D0300801A06004F
:1021700000350C0040420F0080841E0000093D0025
:1021800000127A000024F40000366E010048E801D5
:10219000006CDC020A0D00435231203A25782020E1
:1021A000200A0D0057454C434F4D4520544F2046C3
:1021B000434D4400D42100080000002058000000D6
:1021C000C40100082C22000858000020F807000075
:1021D000E001000800093D000100000000000000CF
:1021E00000000000000000000000000000000000EF
:1021F00000000000000000000000000000000000DF
:1022000000000000000000000000000000000000CE
:1022100000000000000000000000000000000000BE
:0C222000000000000000000000000000B2
:040000050800023DB0
:00000001FF
